{
  "_format": "hh-sol-artifact-1",
  "contractName": "SimpleBetting",
  "sourceName": "contracts/SimpleBetting.sol",
  "abi": [
    {
      "inputs": [
        {
          "internalType": "address",
          "name": "_usdc",
          "type": "address"
        },
        {
          "internalType": "address",
          "name": "_appWallet",
          "type": "address"
        }
      ],
      "stateMutability": "nonpayable",
      "type": "constructor"
    },
    {
      "inputs": [],
      "name": "EnforcedPause",
      "type": "error"
    },
    {
      "inputs": [],
      "name": "ExpectedPause",
      "type": "error"
    },
    {
      "inputs": [
        {
          "internalType": "address",
          "name": "owner",
          "type": "address"
        }
      ],
      "name": "OwnableInvalidOwner",
      "type": "error"
    },
    {
      "inputs": [
        {
          "internalType": "address",
          "name": "account",
          "type": "address"
        }
      ],
      "name": "OwnableUnauthorizedAccount",
      "type": "error"
    },
    {
      "inputs": [],
      "name": "ReentrancyGuardReentrantCall",
      "type": "error"
    },
    {
      "anonymous": false,
      "inputs": [
        {
          "indexed": true,
          "internalType": "address",
          "name": "oldWallet",
          "type": "address"
        },
        {
          "indexed": true,
          "internalType": "address",
          "name": "newWallet",
          "type": "address"
        }
      ],
      "name": "AppWalletUpdated",
      "type": "event"
    },
    {
      "anonymous": false,
      "inputs": [
        {
          "indexed": true,
          "internalType": "address",
          "name": "user",
          "type": "address"
        },
        {
          "indexed": true,
          "internalType": "uint256",
          "name": "round",
          "type": "uint256"
        },
        {
          "indexed": false,
          "internalType": "uint8",
          "name": "option",
          "type": "uint8"
        },
        {
          "indexed": false,
          "internalType": "uint256",
          "name": "amount",
          "type": "uint256"
        }
      ],
      "name": "BetPlaced",
      "type": "event"
    },
    {
      "anonymous": false,
      "inputs": [
        {
          "indexed": true,
          "internalType": "uint256",
          "name": "round",
          "type": "uint256"
        },
        {
          "indexed": false,
          "internalType": "uint256",
          "name": "deadline",
          "type": "uint256"
        }
      ],
      "name": "NewRoundStarted",
      "type": "event"
    },
    {
      "anonymous": false,
      "inputs": [
        {
          "indexed": true,
          "internalType": "address",
          "name": "previousOwner",
          "type": "address"
        },
        {
          "indexed": true,
          "internalType": "address",
          "name": "newOwner",
          "type": "address"
        }
      ],
      "name": "OwnershipTransferred",
      "type": "event"
    },
    {
      "anonymous": false,
      "inputs": [
        {
          "indexed": false,
          "internalType": "address",
          "name": "account",
          "type": "address"
        }
      ],
      "name": "Paused",
      "type": "event"
    },
    {
      "anonymous": false,
      "inputs": [
        {
          "indexed": true,
          "internalType": "uint256",
          "name": "round",
          "type": "uint256"
        },
        {
          "indexed": false,
          "internalType": "uint8",
          "name": "winner",
          "type": "uint8"
        },
        {
          "indexed": false,
          "internalType": "uint256",
          "name": "totalPool",
          "type": "uint256"
        },
        {
          "indexed": false,
          "internalType": "uint256",
          "name": "houseFee",
          "type": "uint256"
        }
      ],
      "name": "RoundSettled",
      "type": "event"
    },
    {
      "anonymous": false,
      "inputs": [
        {
          "indexed": false,
          "internalType": "address",
          "name": "account",
          "type": "address"
        }
      ],
      "name": "Unpaused",
      "type": "event"
    },
    {
      "anonymous": false,
      "inputs": [
        {
          "indexed": true,
          "internalType": "address",
          "name": "user",
          "type": "address"
        },
        {
          "indexed": true,
          "internalType": "uint256",
          "name": "round",
          "type": "uint256"
        },
        {
          "indexed": false,
          "internalType": "uint256",
          "name": "amount",
          "type": "uint256"
        }
      ],
      "name": "WinningsClaimed",
      "type": "event"
    },
    {
      "inputs": [],
      "name": "HOUSE_FEE_PERCENT",
      "outputs": [
        {
          "internalType": "uint256",
          "name": "",
          "type": "uint256"
        }
      ],
      "stateMutability": "view",
      "type": "function"
    },
    {
      "inputs": [],
      "name": "MAX_BET",
      "outputs": [
        {
          "internalType": "uint256",
          "name": "",
          "type": "uint256"
        }
      ],
      "stateMutability": "view",
      "type": "function"
    },
    {
      "inputs": [],
      "name": "MIN_BET",
      "outputs": [
        {
          "internalType": "uint256",
          "name": "",
          "type": "uint256"
        }
      ],
      "stateMutability": "view",
      "type": "function"
    },
    {
      "inputs": [],
      "name": "ROUND_DURATION",
      "outputs": [
        {
          "internalType": "uint256",
          "name": "",
          "type": "uint256"
        }
      ],
      "stateMutability": "view",
      "type": "function"
    },
    {
      "inputs": [],
      "name": "appWallet",
      "outputs": [
        {
          "internalType": "address",
          "name": "",
          "type": "address"
        }
      ],
      "stateMutability": "view",
      "type": "function"
    },
    {
      "inputs": [],
      "name": "bettingDeadline",
      "outputs": [
        {
          "internalType": "uint256",
          "name": "",
          "type": "uint256"
        }
      ],
      "stateMutability": "view",
      "type": "function"
    },
    {
      "inputs": [
        {
          "internalType": "uint256",
          "name": "round",
          "type": "uint256"
        },
        {
          "internalType": "address",
          "name": "user",
          "type": "address"
        },
        {
          "internalType": "uint8",
          "name": "winningOption",
          "type": "uint8"
        }
      ],
      "name": "calculatePayout",
      "outputs": [
        {
          "internalType": "uint256",
          "name": "",
          "type": "uint256"
        }
      ],
      "stateMutability": "view",
      "type": "function"
    },
    {
      "inputs": [
        {
          "internalType": "uint256",
          "name": "round",
          "type": "uint256"
        }
      ],
      "name": "claimWinnings",
      "outputs": [],
      "stateMutability": "nonpayable",
      "type": "function"
    },
    {
      "inputs": [],
      "name": "currentRound",
      "outputs": [
        {
          "internalType": "uint256",
          "name": "",
          "type": "uint256"
        }
      ],
      "stateMutability": "view",
      "type": "function"
    },
    {
      "inputs": [],
      "name": "emergencyWithdraw",
      "outputs": [],
      "stateMutability": "nonpayable",
      "type": "function"
    },
    {
      "inputs": [],
      "name": "getCurrentRoundInfo",
      "outputs": [
        {
          "internalType": "uint256",
          "name": "round",
          "type": "uint256"
        },
        {
          "internalType": "uint256",
          "name": "deadline",
          "type": "uint256"
        },
        {
          "internalType": "uint256",
          "name": "poolA",
          "type": "uint256"
        },
        {
          "internalType": "uint256",
          "name": "poolB",
          "type": "uint256"
        },
        {
          "internalType": "bool",
          "name": "active",
          "type": "bool"
        }
      ],
      "stateMutability": "view",
      "type": "function"
    },
    {
      "inputs": [
        {
          "internalType": "uint256",
          "name": "round",
          "type": "uint256"
        }
      ],
      "name": "getRoundStats",
      "outputs": [
        {
          "internalType": "uint256",
          "name": "totalA",
          "type": "uint256"
        },
        {
          "internalType": "uint256",
          "name": "totalB",
          "type": "uint256"
        },
        {
          "internalType": "uint8",
          "name": "winner",
          "type": "uint8"
        }
      ],
      "stateMutability": "view",
      "type": "function"
    },
    {
      "inputs": [
        {
          "internalType": "uint256",
          "name": "round",
          "type": "uint256"
        },
        {
          "internalType": "address",
          "name": "user",
          "type": "address"
        }
      ],
      "name": "getUserBet",
      "outputs": [
        {
          "internalType": "uint256",
          "name": "amountA",
          "type": "uint256"
        },
        {
          "internalType": "uint256",
          "name": "amountB",
          "type": "uint256"
        },
        {
          "internalType": "bool",
          "name": "hasClaimed",
          "type": "bool"
        }
      ],
      "stateMutability": "view",
      "type": "function"
    },
    {
      "inputs": [],
      "name": "isRoundActive",
      "outputs": [
        {
          "internalType": "bool",
          "name": "",
          "type": "bool"
        }
      ],
      "stateMutability": "view",
      "type": "function"
    },
    {
      "inputs": [],
      "name": "owner",
      "outputs": [
        {
          "internalType": "address",
          "name": "",
          "type": "address"
        }
      ],
      "stateMutability": "view",
      "type": "function"
    },
    {
      "inputs": [],
      "name": "pause",
      "outputs": [],
      "stateMutability": "nonpayable",
      "type": "function"
    },
    {
      "inputs": [],
      "name": "paused",
      "outputs": [
        {
          "internalType": "bool",
          "name": "",
          "type": "bool"
        }
      ],
      "stateMutability": "view",
      "type": "function"
    },
    {
      "inputs": [
        {
          "internalType": "uint8",
          "name": "option",
          "type": "uint8"
        },
        {
          "internalType": "uint256",
          "name": "amount",
          "type": "uint256"
        }
      ],
      "name": "placeBet",
      "outputs": [],
      "stateMutability": "nonpayable",
      "type": "function"
    },
    {
      "inputs": [],
      "name": "renounceOwnership",
      "outputs": [],
      "stateMutability": "nonpayable",
      "type": "function"
    },
    {
      "inputs": [
        {
          "internalType": "uint256",
          "name": "",
          "type": "uint256"
        }
      ],
      "name": "roundTotalA",
      "outputs": [
        {
          "internalType": "uint256",
          "name": "",
          "type": "uint256"
        }
      ],
      "stateMutability": "view",
      "type": "function"
    },
    {
      "inputs": [
        {
          "internalType": "uint256",
          "name": "",
          "type": "uint256"
        }
      ],
      "name": "roundTotalB",
      "outputs": [
        {
          "internalType": "uint256",
          "name": "",
          "type": "uint256"
        }
      ],
      "stateMutability": "view",
      "type": "function"
    },
    {
      "inputs": [
        {
          "internalType": "uint256",
          "name": "",
          "type": "uint256"
        }
      ],
      "name": "roundWinner",
      "outputs": [
        {
          "internalType": "uint8",
          "name": "",
          "type": "uint8"
        }
      ],
      "stateMutability": "view",
      "type": "function"
    },
    {
      "inputs": [
        {
          "internalType": "uint8",
          "name": "winningOption",
          "type": "uint8"
        }
      ],
      "name": "settleRound",
      "outputs": [],
      "stateMutability": "nonpayable",
      "type": "function"
    },
    {
      "inputs": [],
      "name": "totalPoolA",
      "outputs": [
        {
          "internalType": "uint256",
          "name": "",
          "type": "uint256"
        }
      ],
      "stateMutability": "view",
      "type": "function"
    },
    {
      "inputs": [],
      "name": "totalPoolB",
      "outputs": [
        {
          "internalType": "uint256",
          "name": "",
          "type": "uint256"
        }
      ],
      "stateMutability": "view",
      "type": "function"
    },
    {
      "inputs": [
        {
          "internalType": "address",
          "name": "newOwner",
          "type": "address"
        }
      ],
      "name": "transferOwnership",
      "outputs": [],
      "stateMutability": "nonpayable",
      "type": "function"
    },
    {
      "inputs": [],
      "name": "unpause",
      "outputs": [],
      "stateMutability": "nonpayable",
      "type": "function"
    },
    {
      "inputs": [
        {
          "internalType": "address",
          "name": "newAppWallet",
          "type": "address"
        }
      ],
      "name": "updateAppWallet",
      "outputs": [],
      "stateMutability": "nonpayable",
      "type": "function"
    },
    {
      "inputs": [],
      "name": "usdc",
      "outputs": [
        {
          "internalType": "contract IERC20",
          "name": "",
          "type": "address"
        }
      ],
      "stateMutability": "view",
      "type": "function"
    },
    {
      "inputs": [
        {
          "internalType": "uint256",
          "name": "",
          "type": "uint256"
        },
        {
          "internalType": "address",
          "name": "",
          "type": "address"
        }
      ],
      "name": "userBets",
      "outputs": [
        {
          "internalType": "uint128",
          "name": "amountA",
          "type": "uint128"
        },
        {
          "internalType": "uint128",
          "name": "amountB",
          "type": "uint128"
        },
        {
          "internalType": "bool",
          "name": "hasClaimed",
          "type": "bool"
        }
      ],
      "stateMutability": "view",
      "type": "function"
    }
  ],
  "bytecode": "0x60a06040523480156200001157600080fd5b5060405162001bbe38038062001bbe833981016040819052620000349162000243565b600160005533806200006157604051631e4fbdf760e01b8152600060048201526024015b60405180910390fd5b6200006c8162000154565b506001600160a01b038216620000c55760405162461bcd60e51b815260206004820152601460248201527f496e76616c696420555344432061646472657373000000000000000000000000604482015260640162000058565b6001600160a01b0381166200011d5760405162461bcd60e51b815260206004820152601a60248201527f496e76616c6964206170702077616c6c65742061646472657373000000000000604482015260640162000058565b6001600160a01b03828116608052600680546001600160a01b0319169183169190911790556200014c620001a6565b5050620002c9565b600180546001600160a01b038381166001600160a01b0319831681179093556040519116919082907f8be0079c531659141344cd1fd0a4f28419497f9722a3daafe3b4186f6b6457e090600090a35050565b60028054906000620001b88362000291565b90915550620001cd90506201518042620002ad565b60038190556006805460ff60a01b1916600160a01b17905560025460405190917ffee93879a5e67f5411452c57c1bc6f494462a67847f16a8ae120e5ff78e8b9c3916200021c91815260200190565b60405180910390a2565b80516001600160a01b03811681146200023e57600080fd5b919050565b600080604083850312156200025757600080fd5b620002628362000226565b9150620002726020840162000226565b90509250929050565b634e487b7160e01b600052601160045260246000fd5b600060018201620002a657620002a66200027b565b5060010190565b80820180821115620002c357620002c36200027b565b92915050565b6080516118b662000308600039600081816102a10152818161086701528181610b5301528181610bca01528181610ed401526112ea01526118b66000f3fe608060405234801561001057600080fd5b50600436106101da5760003560e01c8063677bd9ff116101045780638da5cb5b116100a2578063db2e21bc11610071578063db2e21bc14610536578063dcb3b30e1461053e578063dd72d4f514610551578063f2fde38b1461056457600080fd5b80638da5cb5b1461047e578063a68bf3c21461048f578063bed71dfd146104a2578063c03fb87c146104ab57600080fd5b80637d06a8e1116100de5780637d06a8e1146103f05780637e95b523146104625780638456cb591461046d5780638a19c8bc1461047557600080fd5b8063677bd9ff14610392578063715018a6146103a5578063747dff42146103ad57600080fd5b806345945a451161017c5780635537be7f1161014b5780635537be7f146103645780635c975abb1461036c5780636540742f1461037e5780636641ea081461038857600080fd5b806345945a45146102cb578063503f6c67146102ef57806352e9a6401461030f578063531c0ab71461034457600080fd5b80632cb36b51116101b85780632cb36b51146102195780633876e05e146102715780633e413bee1461029c5780633f4ba83a146102c357600080fd5b80630e987b93146101df57806318bac35b146101f45780632468698d14610210575b600080fd5b6101f26101ed366004611698565b610577565b005b6101fd60055481565b6040519081526020015b60405180910390f35b6101fd60035481565b6102536102273660046116b3565b600081815260096020908152604080832054600a835281842054600890935292205460ff169193909250565b60408051938452602084019290925260ff1690820152606001610207565b600654610284906001600160a01b031681565b6040516001600160a01b039091168152602001610207565b6102847f000000000000000000000000000000000000000000000000000000000000000081565b6101f261061e565b6006546102df90600160a01b900460ff1681565b6040519015158152602001610207565b6101fd6102fd3660046116b3565b60096020526000908152604090205481565b61033261031d3660046116b3565b60086020526000908152604090205460ff1681565b60405160ff9091168152602001610207565b6101fd6103523660046116b3565b600a6020526000908152604090205481565b6101fd600a81565b600154600160a01b900460ff166102df565b6101fd620f424081565b6101fd6201518081565b6101f26103a03660046116b3565b610630565b6101f261096c565b600254600354600454600554600654600160a01b900460ff166040805195865260208601949094529284019190915260608301521515608082015260a001610207565b61043a6103fe3660046116cc565b6007602090815260009283526040808420909152908252902080546001909101546001600160801b0380831692600160801b9004169060ff1683565b604080516001600160801b039485168152939092166020840152151590820152606001610207565b6101fd633b9aca0081565b6101f261097e565b6101fd60025481565b6001546001600160a01b0316610284565b6101fd61049d366004611709565b61098e565b6101fd60045481565b6105196104b93660046116cc565b60009182526007602090815260408084206001600160a01b0393909316845291815291819020815160608101835281546001600160801b03808216808452600160801b9092041694820185905260019092015460ff161515920182905292565b604080519384526020840192909252151590820152606001610207565b6101f2610b2b565b6101f261054c366004611745565b610cc6565b6101f261055f36600461176f565b6110f2565b6101f2610572366004611698565b611430565b61057f61146b565b6001600160a01b0381166105cc5760405162461bcd60e51b815260206004820152600f60248201526e496e76616c6964206164647265737360881b60448201526064015b60405180910390fd5b600680546001600160a01b038381166001600160a01b0319831681179093556040519116919082907f22df6805db7e344a744f9553c1df3c403c87377cedcfa02e3f14ba2f01b45d4490600090a35050565b61062661146b565b61062e611498565b565b6106386114ed565b60008181526008602052604081205460ff16900361068c5760405162461bcd60e51b8152602060048201526011602482015270149bdd5b99081b9bdd081cd95d1d1b1959607a1b60448201526064016105c3565b60008181526007602090815260408083203384529091529020600181015460ff16156106ec5760405162461bcd60e51b815260206004820152600f60248201526e105b1c9958591e4818db185a5b5959608a1b60448201526064016105c3565b60008281526008602052604081205460ff169080600183900361072d57505081546000848152600960205260409020546001600160801b0390911690610753565b505081546000848152600a6020526040902054600160801b9091046001600160801b0316905b600082116107945760405162461bcd60e51b815260206004820152600e60248201526d139bc81dda5b9b9a5b99c818995d60921b60448201526064016105c3565b600081116107d65760405162461bcd60e51b815260206004820152600f60248201526e139bc81dda5b9b9a5b99c81c1bdbdb608a1b60448201526064016105c3565b6000858152600a602090815260408083205460099092528220546107fa91906117a0565b90506000606461080b600a826117b9565b61081590846117cc565b61081f91906117e3565b905060008361082e83876117cc565b61083891906117e3565b6001888101805460ff1916909117905560405163a9059cbb60e01b8152336004820152602481018290529091507f00000000000000000000000000000000000000000000000000000000000000006001600160a01b03169063a9059cbb906044016020604051808303816000875af11580156108b8573d6000803e3d6000fd5b505050506040513d601f19601f820116820180604052508101906108dc9190611805565b6109215760405162461bcd60e51b815260206004820152601660248201527514185e5bdd5d081d1c985b9cd9995c8819985a5b195960521b60448201526064016105c3565b604051818152889033907f7472e24de4628e34b41a2aa1688ed4b46a9145b2de1cf93d74902473ccc1740d9060200160405180910390a3505050505050506109696001600055565b50565b61097461146b565b61062e6000611517565b61098661146b565b61062e611569565b60008160ff16600114806109a557508160ff166002145b6109e25760405162461bcd60e51b815260206004820152600e60248201526d24b73b30b634b21037b83a34b7b760911b60448201526064016105c3565b60008481526007602090815260408083206001600160a01b03871684528252808320815160608101835281546001600160801b038082168352600160801b909104169381019390935260019081015460ff90811615159284019290925291929190851614610a54578160200151610a57565b81515b6001600160801b0316905080600003610a7557600092505050610b24565b60008460ff16600114610a96576000878152600a6020526040902054610aa6565b6000878152600960205260409020545b905080600003610abc5760009350505050610b24565b6000878152600a60209081526040808320546009909252822054610ae091906117a0565b905060006064610af1600a826117b9565b610afb90846117cc565b610b0591906117e3565b905082610b1282866117cc565b610b1c91906117e3565b955050505050505b9392505050565b610b3361146b565b610b3b6115ac565b6040516370a0823160e01b81523060048201526000907f00000000000000000000000000000000000000000000000000000000000000006001600160a01b0316906370a0823190602401602060405180830381865afa158015610ba2573d6000803e3d6000fd5b505050506040513d601f19601f82011682018060405250810190610bc69190611827565b90507f00000000000000000000000000000000000000000000000000000000000000006001600160a01b031663a9059cbb610c096001546001600160a01b031690565b6040516001600160e01b031960e084901b1681526001600160a01b039091166004820152602481018490526044016020604051808303816000875af1158015610c56573d6000803e3d6000fd5b505050506040513d601f19601f82011682018060405250810190610c7a9190611805565b6109695760405162461bcd60e51b815260206004820152601960248201527f456d657267656e6379207769746864726177206661696c65640000000000000060448201526064016105c3565b610cce6114ed565b610cd66115d6565b600654600160a01b900460ff16610d215760405162461bcd60e51b815260206004820152600f60248201526e139bc81858dd1a5d99481c9bdd5b99608a1b60448201526064016105c3565b6003544210610d695760405162461bcd60e51b815260206004820152601460248201527310995d1d1a5b99c81c195c9a5bd908195b99195960621b60448201526064016105c3565b8160ff1660011480610d7e57508160ff166002145b610dbb5760405162461bcd60e51b815260206004820152600e60248201526d24b73b30b634b21037b83a34b7b760911b60448201526064016105c3565b620f42408110158015610dd25750633b9aca008111155b610e135760405162461bcd60e51b8152602060048201526012602482015271125b9d985b1a590818995d08185b5bdd5b9d60721b60448201526064016105c3565b6002546000908152600760209081526040808320338452909152812080549091908390610e52906001600160801b03600160801b8204811691166117a0565b610e5c91906117a0565b9050633b9aca00811115610eb25760405162461bcd60e51b815260206004820152601860248201527f45786365656473206d617820626574207065722075736572000000000000000060448201526064016105c3565b6040516323b872dd60e01b8152336004820152306024820152604481018490527f00000000000000000000000000000000000000000000000000000000000000006001600160a01b0316906323b872dd906064016020604051808303816000875af1158015610f25573d6000803e3d6000fd5b505050506040513d601f19601f82011682018060405250810190610f499190611805565b610f8c5760405162461bcd60e51b81526020600482015260146024820152731554d110c81d1c985b9cd9995c8819985a5b195960621b60448201526064016105c3565b8360ff1660010361101b57815483908390600090610fb49084906001600160801b0316611840565b92506101000a8154816001600160801b0302191690836001600160801b031602179055508260046000828254610fea91906117a0565b9091555050600254600090815260096020526040812080548592906110109084906117a0565b909155506110a19050565b81548390839060109061103f908490600160801b90046001600160801b0316611840565b92506101000a8154816001600160801b0302191690836001600160801b03160217905550826005600082825461107591906117a0565b90915550506002546000908152600a60205260408120805485929061109b9084906117a0565b90915550505b6002546040805160ff871681526020810186905233917f1efa8a4db358fbd4b3e1004cca7c5a1bdc9de3512d3392d48a51d1961316f983910160405180910390a350506110ee6001600055565b5050565b6110fa61146b565b600654600160a01b900460ff166111455760405162461bcd60e51b815260206004820152600f60248201526e139bc81858dd1a5d99481c9bdd5b99608a1b60448201526064016105c3565b6003544210156111975760405162461bcd60e51b815260206004820152601860248201527f42657474696e6720706572696f64206e6f7420656e646564000000000000000060448201526064016105c3565b8060ff16600114806111ac57508060ff166002145b6111f15760405162461bcd60e51b815260206004820152601660248201527524b73b30b634b2103bb4b73734b7339037b83a34b7b760511b60448201526064016105c3565b60025460009081526008602052604090205460ff161561124b5760405162461bcd60e51b8152602060048201526015602482015274149bdd5b9908185b1c9958591e481cd95d1d1b1959605a1b60448201526064016105c3565b600060055460045461125d91906117a0565b9050600081116112a05760405162461bcd60e51b815260206004820152600e60248201526d139bc818995d1cc81c1b1858d95960921b60448201526064016105c3565b600060646112af600a846117cc565b6112b991906117e3565b905080156113a55760065460405163a9059cbb60e01b81526001600160a01b039182166004820152602481018390527f00000000000000000000000000000000000000000000000000000000000000009091169063a9059cbb906044016020604051808303816000875af1158015611335573d6000803e3d6000fd5b505050506040513d601f19601f820116820180604052508101906113599190611805565b6113a55760405162461bcd60e51b815260206004820152601960248201527f486f75736520666565207472616e73666572206661696c65640000000000000060448201526064016105c3565b60028054600090815260086020908152604091829020805460ff191660ff881690811790915592548251938452908301859052908201839052907f722d83c8cff8d01d419e809b3428f5549038f9082a00493801301bdf1f319fa49060600160405180910390a26006805460ff60a01b191690556000600481905560055561142b611601565b505050565b61143861146b565b6001600160a01b03811661146257604051631e4fbdf760e01b8152600060048201526024016105c3565b61096981611517565b6001546001600160a01b0316331461062e5760405163118cdaa760e01b81523360048201526024016105c3565b6114a06115ac565b6001805460ff60a01b191690557f5db9ee0a495bf2e6ff9c91a7834c1ba4fdd244a5e8aa4e537bd38aeae4b073aa335b6040516001600160a01b03909116815260200160405180910390a1565b60026000540361151057604051633ee5aeb560e01b815260040160405180910390fd5b6002600055565b600180546001600160a01b038381166001600160a01b0319831681179093556040519116919082907f8be0079c531659141344cd1fd0a4f28419497f9722a3daafe3b4186f6b6457e090600090a35050565b6115716115d6565b6001805460ff60a01b1916600160a01b1790557f62e78cea01bee320cd4e420270b5ea74000d11b0c9f74754ebdbfc544b05a2586114d03390565b600154600160a01b900460ff1661062e57604051638dfc202b60e01b815260040160405180910390fd5b600154600160a01b900460ff161561062e5760405163d93c066560e01b815260040160405180910390fd5b6002805490600061161183611867565b90915550611624905062015180426117a0565b60038190556006805460ff60a01b1916600160a01b17905560025460405190917ffee93879a5e67f5411452c57c1bc6f494462a67847f16a8ae120e5ff78e8b9c39161167291815260200190565b60405180910390a2565b80356001600160a01b038116811461169357600080fd5b919050565b6000602082840312156116aa57600080fd5b610b248261167c565b6000602082840312156116c557600080fd5b5035919050565b600080604083850312156116df57600080fd5b823591506116ef6020840161167c565b90509250929050565b803560ff8116811461169357600080fd5b60008060006060848603121561171e57600080fd5b8335925061172e6020850161167c565b915061173c604085016116f8565b90509250925092565b6000806040838503121561175857600080fd5b611761836116f8565b946020939093013593505050565b60006020828403121561178157600080fd5b610b24826116f8565b634e487b7160e01b600052601160045260246000fd5b808201808211156117b3576117b361178a565b92915050565b818103818111156117b3576117b361178a565b80820281158282048414176117b3576117b361178a565b60008261180057634e487b7160e01b600052601260045260246000fd5b500490565b60006020828403121561181757600080fd5b81518015158114610b2457600080fd5b60006020828403121561183957600080fd5b5051919050565b6001600160801b038181168382160190808211156118605761186061178a565b5092915050565b6000600182016118795761187961178a565b506001019056fea26469706673582212207216d0a215d08d995a83e2b9274f8059b66fb5d9ab54ea8a2cd47e1b80e8d5b364736f6c63430008140033",
  "linkReferences": {},
  "deployedLinkReferences": {}
}