{
  "_format": "hh-sol-artifact-1",
  "contractName": "BettingPaymaster",
  "sourceName": "contracts/BettingPaymaster.sol",
  "abi": [
    {
      "inputs": [
        {
          "internalType": "address",
          "name": "_usdc",
          "type": "address"
        },
        {
          "internalType": "address",
          "name": "_bettingContract",
          "type": "address"
        }
      ],
      "stateMutability": "nonpayable",
      "type": "constructor"
    },
    {
      "inputs": [
        {
          "internalType": "address",
          "name": "owner",
          "type": "address"
        }
      ],
      "name": "OwnableInvalidOwner",
      "type": "error"
    },
    {
      "inputs": [
        {
          "internalType": "address",
          "name": "account",
          "type": "address"
        }
      ],
      "name": "OwnableUnauthorizedAccount",
      "type": "error"
    },
    {
      "inputs": [],
      "name": "ReentrancyGuardReentrantCall",
      "type": "error"
    },
    {
      "anonymous": false,
      "inputs": [
        {
          "indexed": true,
          "internalType": "address",
          "name": "depositor",
          "type": "address"
        },
        {
          "indexed": false,
          "internalType": "uint256",
          "name": "amount",
          "type": "uint256"
        }
      ],
      "name": "FundsDeposited",
      "type": "event"
    },
    {
      "anonymous": false,
      "inputs": [
        {
          "indexed": true,
          "internalType": "address",
          "name": "recipient",
          "type": "address"
        },
        {
          "indexed": false,
          "internalType": "uint256",
          "name": "amount",
          "type": "uint256"
        }
      ],
      "name": "FundsWithdrawn",
      "type": "event"
    },
    {
      "anonymous": false,
      "inputs": [
        {
          "indexed": true,
          "internalType": "address",
          "name": "user",
          "type": "address"
        },
        {
          "indexed": false,
          "internalType": "uint256",
          "name": "gasAmount",
          "type": "uint256"
        },
        {
          "indexed": false,
          "internalType": "uint256",
          "name": "gasCost",
          "type": "uint256"
        }
      ],
      "name": "GasSponsored",
      "type": "event"
    },
    {
      "anonymous": false,
      "inputs": [
        {
          "indexed": true,
          "internalType": "address",
          "name": "previousOwner",
          "type": "address"
        },
        {
          "indexed": true,
          "internalType": "address",
          "name": "newOwner",
          "type": "address"
        }
      ],
      "name": "OwnershipTransferred",
      "type": "event"
    },
    {
      "anonymous": false,
      "inputs": [
        {
          "indexed": false,
          "internalType": "uint256",
          "name": "maxGas",
          "type": "uint256"
        },
        {
          "indexed": false,
          "internalType": "uint256",
          "name": "minBalance",
          "type": "uint256"
        },
        {
          "indexed": false,
          "internalType": "bool",
          "name": "active",
          "type": "bool"
        }
      ],
      "name": "PaymasterConfigUpdated",
      "type": "event"
    },
    {
      "stateMutability": "payable",
      "type": "fallback"
    },
    {
      "inputs": [],
      "name": "bettingContract",
      "outputs": [
        {
          "internalType": "address",
          "name": "",
          "type": "address"
        }
      ],
      "stateMutability": "view",
      "type": "function"
    },
    {
      "inputs": [
        {
          "internalType": "address",
          "name": "user",
          "type": "address"
        },
        {
          "internalType": "uint256",
          "name": "gasLimit",
          "type": "uint256"
        }
      ],
      "name": "canSponsorGas",
      "outputs": [
        {
          "internalType": "bool",
          "name": "",
          "type": "bool"
        }
      ],
      "stateMutability": "view",
      "type": "function"
    },
    {
      "inputs": [],
      "name": "depositFunds",
      "outputs": [],
      "stateMutability": "payable",
      "type": "function"
    },
    {
      "inputs": [
        {
          "internalType": "uint256",
          "name": "gasLimit",
          "type": "uint256"
        }
      ],
      "name": "estimateGasCost",
      "outputs": [
        {
          "internalType": "uint256",
          "name": "",
          "type": "uint256"
        }
      ],
      "stateMutability": "view",
      "type": "function"
    },
    {
      "inputs": [],
      "name": "getPaymasterInfo",
      "outputs": [
        {
          "internalType": "bool",
          "name": "active",
          "type": "bool"
        },
        {
          "internalType": "uint256",
          "name": "maxGas",
          "type": "uint256"
        },
        {
          "internalType": "uint256",
          "name": "minBalance",
          "type": "uint256"
        },
        {
          "internalType": "uint256",
          "name": "ethBalance",
          "type": "uint256"
        },
        {
          "internalType": "address",
          "name": "bettingAddr",
          "type": "address"
        }
      ],
      "stateMutability": "view",
      "type": "function"
    },
    {
      "inputs": [
        {
          "internalType": "address",
          "name": "user",
          "type": "address"
        }
      ],
      "name": "getUserGasHistory",
      "outputs": [
        {
          "internalType": "uint256",
          "name": "totalGasSponsored",
          "type": "uint256"
        },
        {
          "internalType": "uint256",
          "name": "lastSponsored",
          "type": "uint256"
        }
      ],
      "stateMutability": "view",
      "type": "function"
    },
    {
      "inputs": [
        {
          "internalType": "address",
          "name": "",
          "type": "address"
        }
      ],
      "name": "lastSponsoredTime",
      "outputs": [
        {
          "internalType": "uint256",
          "name": "",
          "type": "uint256"
        }
      ],
      "stateMutability": "view",
      "type": "function"
    },
    {
      "inputs": [],
      "name": "maxGasPerTx",
      "outputs": [
        {
          "internalType": "uint256",
          "name": "",
          "type": "uint256"
        }
      ],
      "stateMutability": "view",
      "type": "function"
    },
    {
      "inputs": [],
      "name": "minUsdcBalance",
      "outputs": [
        {
          "internalType": "uint256",
          "name": "",
          "type": "uint256"
        }
      ],
      "stateMutability": "view",
      "type": "function"
    },
    {
      "inputs": [],
      "name": "owner",
      "outputs": [
        {
          "internalType": "address",
          "name": "",
          "type": "address"
        }
      ],
      "stateMutability": "view",
      "type": "function"
    },
    {
      "inputs": [],
      "name": "pausePaymaster",
      "outputs": [],
      "stateMutability": "nonpayable",
      "type": "function"
    },
    {
      "inputs": [],
      "name": "paymasterActive",
      "outputs": [
        {
          "internalType": "bool",
          "name": "",
          "type": "bool"
        }
      ],
      "stateMutability": "view",
      "type": "function"
    },
    {
      "inputs": [],
      "name": "renounceOwnership",
      "outputs": [],
      "stateMutability": "nonpayable",
      "type": "function"
    },
    {
      "inputs": [],
      "name": "resumePaymaster",
      "outputs": [],
      "stateMutability": "nonpayable",
      "type": "function"
    },
    {
      "inputs": [
        {
          "internalType": "address",
          "name": "user",
          "type": "address"
        },
        {
          "internalType": "uint256",
          "name": "gasUsed",
          "type": "uint256"
        }
      ],
      "name": "sponsorGas",
      "outputs": [],
      "stateMutability": "payable",
      "type": "function"
    },
    {
      "inputs": [
        {
          "internalType": "address",
          "name": "",
          "type": "address"
        }
      ],
      "name": "sponsoredGasUsed",
      "outputs": [
        {
          "internalType": "uint256",
          "name": "",
          "type": "uint256"
        }
      ],
      "stateMutability": "view",
      "type": "function"
    },
    {
      "inputs": [
        {
          "internalType": "address",
          "name": "newOwner",
          "type": "address"
        }
      ],
      "name": "transferOwnership",
      "outputs": [],
      "stateMutability": "nonpayable",
      "type": "function"
    },
    {
      "inputs": [
        {
          "internalType": "uint256",
          "name": "_maxGasPerTx",
          "type": "uint256"
        },
        {
          "internalType": "uint256",
          "name": "_minUsdcBalance",
          "type": "uint256"
        },
        {
          "internalType": "bool",
          "name": "_active",
          "type": "bool"
        }
      ],
      "name": "updateConfig",
      "outputs": [],
      "stateMutability": "nonpayable",
      "type": "function"
    },
    {
      "inputs": [],
      "name": "usdc",
      "outputs": [
        {
          "internalType": "contract IERC20",
          "name": "",
          "type": "address"
        }
      ],
      "stateMutability": "view",
      "type": "function"
    },
    {
      "inputs": [
        {
          "internalType": "uint256",
          "name": "amount",
          "type": "uint256"
        },
        {
          "internalType": "address payable",
          "name": "recipient",
          "type": "address"
        }
      ],
      "name": "withdrawFunds",
      "outputs": [],
      "stateMutability": "nonpayable",
      "type": "function"
    },
    {
      "stateMutability": "payable",
      "type": "receive"
    }
  ],
  "bytecode": "0x60c060405262030d40600255620f42406003556004805460ff191660011790553480156200002c57600080fd5b50604051620010ea380380620010ea8339810160408190526200004f91620001bc565b33806200007757604051631e4fbdf760e01b8152600060048201526024015b60405180910390fd5b62000082816200014f565b50600180556001600160a01b038216620000df5760405162461bcd60e51b815260206004820152601460248201527f496e76616c69642055534443206164647265737300000000000000000000000060448201526064016200006e565b6001600160a01b038116620001375760405162461bcd60e51b815260206004820152601860248201527f496e76616c69642062657474696e6720636f6e7472616374000000000000000060448201526064016200006e565b6001600160a01b039182166080521660a052620001f4565b600080546001600160a01b038381166001600160a01b0319831681178455604051919092169283917f8be0079c531659141344cd1fd0a4f28419497f9722a3daafe3b4186f6b6457e09190a35050565b80516001600160a01b0381168114620001b757600080fd5b919050565b60008060408385031215620001d057600080fd5b620001db836200019f565b9150620001eb602084016200019f565b90509250929050565b60805160a051610eb462000236600039600081816101bb015281816103e8015261078d01526000818161020c015281816108a20152610b2e0152610eb46000f3fe6080604052600436106101235760003560e01c80638da5cb5b116100a0578063d2f4071811610064578063d2f4071814610442578063e14c9fdf14610455578063e2c41dbc14610475578063e5789d031461047d578063f2fde38b1461049357610160565b80638da5cb5b14610341578063bd4725a61461035f578063bd90ff131461037f578063ced4d851146103a9578063d172b13e1461041557610160565b806364d9907f116100e757806364d9907f14610263578063715018a61461029e578063744bfe61146102b357806374b41719146102d35780637d59efd7146102e957610160565b80631565bbf81461019257806321cb4831146101a95780633e413bee146101fa57806344a1956c1461022e5780634cebed871461024e57610160565b366101605760405134815233907f543ba50a5eec5e6178218e364b1d0f396157b3c8fa278522c2cb7fd99407d474906020015b60405180910390a2005b60405134815233907f543ba50a5eec5e6178218e364b1d0f396157b3c8fa278522c2cb7fd99407d47490602001610156565b34801561019e57600080fd5b506101a76104b3565b005b3480156101b557600080fd5b506101dd7f000000000000000000000000000000000000000000000000000000000000000081565b6040516001600160a01b0390911681526020015b60405180910390f35b34801561020657600080fd5b506101dd7f000000000000000000000000000000000000000000000000000000000000000081565b34801561023a57600080fd5b506101a7610249366004610d39565b610510565b34801561025a57600080fd5b506101a761057a565b34801561026f57600080fd5b5061029061027e366004610d8c565b60056020526000908152604090205481565b6040519081526020016101f1565b3480156102aa57600080fd5b506101a76105d7565b3480156102bf57600080fd5b506101a76102ce366004610db0565b6105eb565b3480156102df57600080fd5b5061029060035481565b3480156102f557600080fd5b5061032c610304366004610d8c565b6001600160a01b03166000908152600560209081526040808320546006909252909120549091565b604080519283526020830191909152016101f1565b34801561034d57600080fd5b506000546001600160a01b03166101dd565b34801561036b57600080fd5b5061029061037a366004610de0565b610768565b34801561038b57600080fd5b506004546103999060ff1681565b60405190151581526020016101f1565b3480156103b557600080fd5b506004546002546003546040805160ff909416151584526020840192909252908201524760608201526001600160a01b037f000000000000000000000000000000000000000000000000000000000000000016608082015260a0016101f1565b34801561042157600080fd5b50610290610430366004610d8c565b60066020526000908152604090205481565b6101a7610450366004610df9565b61077a565b34801561046157600080fd5b50610399610470366004610df9565b610ae5565b6101a7610bdd565b34801561048957600080fd5b5061029060025481565b34801561049f57600080fd5b506101a76104ae366004610d8c565b610c54565b6104bb610c92565b6004805460ff191690556002546003546040805192835260208301919091526000908201527f8d0da638389b70a8db1ed63eb878a75c22224fe4c22fc0ce5cf9fb66dec1a90b906060015b60405180910390a1565b610518610c92565b600283905560038290556004805460ff19168215159081179091556040805185815260208101859052908101919091527f8d0da638389b70a8db1ed63eb878a75c22224fe4c22fc0ce5cf9fb66dec1a90b9060600160405180910390a1505050565b610582610c92565b6004805460ff191660019081179091556002546003546040805192835260208301919091528101919091527f8d0da638389b70a8db1ed63eb878a75c22224fe4c22fc0ce5cf9fb66dec1a90b90606001610506565b6105df610c92565b6105e96000610cbf565b565b6105f3610c92565b6001600160a01b0381166106425760405162461bcd60e51b8152602060048201526011602482015270125b9d985b1a59081c9958da5c1a595b9d607a1b60448201526064015b60405180910390fd5b814710156106895760405162461bcd60e51b8152602060048201526014602482015273496e73756666696369656e742062616c616e636560601b6044820152606401610639565b6000816001600160a01b03168360405160006040518083038185875af1925050503d80600081146106d6576040519150601f19603f3d011682016040523d82523d6000602084013e6106db565b606091505b50509050806107205760405162461bcd60e51b815260206004820152601160248201527015da5d1a191c985dd85b0819985a5b1959607a1b6044820152606401610639565b816001600160a01b03167feaff4b37086828766ad3268786972c0cd24259d4c87a80f9d3963a3c3d999b0d8460405161075b91815260200190565b60405180910390a2505050565b60006107743a83610e3b565b92915050565b610782610d0f565b336001600160a01b037f000000000000000000000000000000000000000000000000000000000000000016146107f25760405162461bcd60e51b815260206004820152601560248201527413db9b1e4818995d1d1a5b99c818dbdb9d1c9858dd605a1b6044820152606401610639565b60045460ff166108395760405162461bcd60e51b81526020600482015260126024820152715061796d617374657220696e61637469766560701b6044820152606401610639565b6002548111156108805760405162461bcd60e51b815260206004820152601260248201527111d85cc81b1a5b5a5d08195e18d95959195960721b6044820152606401610639565b6040516370a0823160e01b81526001600160a01b0383811660048301526000917f0000000000000000000000000000000000000000000000000000000000000000909116906370a0823190602401602060405180830381865afa1580156108eb573d6000803e3d6000fd5b505050506040513d601f19601f8201168201806040525081019061090f9190610e52565b90506003548110156109635760405162461bcd60e51b815260206004820152601960248201527f496e73756666696369656e7420555344432062616c616e6365000000000000006044820152606401610639565b600061096f3a84610e3b565b9050804710156109c15760405162461bcd60e51b815260206004820152601e60248201527f496e73756666696369656e74207061796d61737465722062616c616e636500006044820152606401610639565b6001600160a01b038416600090815260056020526040812080548592906109e9908490610e6b565b90915550506001600160a01b03841660009081526006602052604080822042905551329083908381818185875af1925050503d8060008114610a47576040519150601f19603f3d011682016040523d82523d6000602084013e610a4c565b606091505b5050905080610a915760405162461bcd60e51b815260206004820152601160248201527011d85cc81c99599d5b990819985a5b1959607a1b6044820152606401610639565b60408051858152602081018490526001600160a01b038716917fb3d8da13e2eec10930982ae94cc39cd56a1e686b864a50f632765647bdfe622b910160405180910390a2505050610ae160018055565b5050565b60045460009060ff16610afa57506000610774565b600254821115610b0c57506000610774565b6040516370a0823160e01b81526001600160a01b0384811660048301526000917f0000000000000000000000000000000000000000000000000000000000000000909116906370a0823190602401602060405180830381865afa158015610b77573d6000803e3d6000fd5b505050506040513d601f19601f82011682018060405250810190610b9b9190610e52565b9050600354811015610bb1576000915050610774565b6000610bbd3a85610e3b565b905080471015610bd257600092505050610774565b506001949350505050565b60003411610c1d5760405162461bcd60e51b815260206004820152600d60248201526c139bc8199d5b991cc81cd95b9d609a1b6044820152606401610639565b60405134815233907f543ba50a5eec5e6178218e364b1d0f396157b3c8fa278522c2cb7fd99407d4749060200160405180910390a2565b610c5c610c92565b6001600160a01b038116610c8657604051631e4fbdf760e01b815260006004820152602401610639565b610c8f81610cbf565b50565b6000546001600160a01b031633146105e95760405163118cdaa760e01b8152336004820152602401610639565b600080546001600160a01b038381166001600160a01b0319831681178455604051919092169283917f8be0079c531659141344cd1fd0a4f28419497f9722a3daafe3b4186f6b6457e09190a35050565b600260015403610d3257604051633ee5aeb560e01b815260040160405180910390fd5b6002600155565b600080600060608486031215610d4e57600080fd5b833592506020840135915060408401358015158114610d6c57600080fd5b809150509250925092565b6001600160a01b0381168114610c8f57600080fd5b600060208284031215610d9e57600080fd5b8135610da981610d77565b9392505050565b60008060408385031215610dc357600080fd5b823591506020830135610dd581610d77565b809150509250929050565b600060208284031215610df257600080fd5b5035919050565b60008060408385031215610e0c57600080fd5b8235610e1781610d77565b946020939093013593505050565b634e487b7160e01b600052601160045260246000fd5b808202811582820484141761077457610774610e25565b600060208284031215610e6457600080fd5b5051919050565b8082018082111561077457610774610e2556fea2646970667358221220df8ca66b00d5149cdde88f801eb34417870934fddbfb719aba8ce403e191c1ed64736f6c63430008140033",
  "linkReferences": {},
  "deployedLinkReferences": {}
}