{
  "_format": "hh-sol-artifact-1",
  "contractName": "TheGameKardashianCollector",
  "sourceName": "contracts/TheGameKardashianCollector.sol",
  "abi": [
    {
      "inputs": [
        {
          "internalType": "string",
          "name": "name",
          "type": "string"
        },
        {
          "internalType": "string",
          "name": "symbol",
          "type": "string"
        },
        {
          "internalType": "string",
          "name": "baseTokenURI",
          "type": "string"
        },
        {
          "internalType": "address",
          "name": "initialOwner",
          "type": "address"
        }
      ],
      "stateMutability": "nonpayable",
      "type": "constructor"
    },
    {
      "inputs": [
        {
          "internalType": "address",
          "name": "sender",
          "type": "address"
        },
        {
          "internalType": "uint256",
          "name": "tokenId",
          "type": "uint256"
        },
        {
          "internalType": "address",
          "name": "owner",
          "type": "address"
        }
      ],
      "name": "ERC721IncorrectOwner",
      "type": "error"
    },
    {
      "inputs": [
        {
          "internalType": "address",
          "name": "operator",
          "type": "address"
        },
        {
          "internalType": "uint256",
          "name": "tokenId",
          "type": "uint256"
        }
      ],
      "name": "ERC721InsufficientApproval",
      "type": "error"
    },
    {
      "inputs": [
        {
          "internalType": "address",
          "name": "approver",
          "type": "address"
        }
      ],
      "name": "ERC721InvalidApprover",
      "type": "error"
    },
    {
      "inputs": [
        {
          "internalType": "address",
          "name": "operator",
          "type": "address"
        }
      ],
      "name": "ERC721InvalidOperator",
      "type": "error"
    },
    {
      "inputs": [
        {
          "internalType": "address",
          "name": "owner",
          "type": "address"
        }
      ],
      "name": "ERC721InvalidOwner",
      "type": "error"
    },
    {
      "inputs": [
        {
          "internalType": "address",
          "name": "receiver",
          "type": "address"
        }
      ],
      "name": "ERC721InvalidReceiver",
      "type": "error"
    },
    {
      "inputs": [
        {
          "internalType": "address",
          "name": "sender",
          "type": "address"
        }
      ],
      "name": "ERC721InvalidSender",
      "type": "error"
    },
    {
      "inputs": [
        {
          "internalType": "uint256",
          "name": "tokenId",
          "type": "uint256"
        }
      ],
      "name": "ERC721NonexistentToken",
      "type": "error"
    },
    {
      "inputs": [
        {
          "internalType": "address",
          "name": "owner",
          "type": "address"
        }
      ],
      "name": "OwnableInvalidOwner",
      "type": "error"
    },
    {
      "inputs": [
        {
          "internalType": "address",
          "name": "account",
          "type": "address"
        }
      ],
      "name": "OwnableUnauthorizedAccount",
      "type": "error"
    },
    {
      "anonymous": false,
      "inputs": [
        {
          "indexed": true,
          "internalType": "address",
          "name": "owner",
          "type": "address"
        },
        {
          "indexed": true,
          "internalType": "address",
          "name": "approved",
          "type": "address"
        },
        {
          "indexed": true,
          "internalType": "uint256",
          "name": "tokenId",
          "type": "uint256"
        }
      ],
      "name": "Approval",
      "type": "event"
    },
    {
      "anonymous": false,
      "inputs": [
        {
          "indexed": true,
          "internalType": "address",
          "name": "owner",
          "type": "address"
        },
        {
          "indexed": true,
          "internalType": "address",
          "name": "operator",
          "type": "address"
        },
        {
          "indexed": false,
          "internalType": "bool",
          "name": "approved",
          "type": "bool"
        }
      ],
      "name": "ApprovalForAll",
      "type": "event"
    },
    {
      "anonymous": false,
      "inputs": [
        {
          "indexed": false,
          "internalType": "uint256",
          "name": "_fromTokenId",
          "type": "uint256"
        },
        {
          "indexed": false,
          "internalType": "uint256",
          "name": "_toTokenId",
          "type": "uint256"
        }
      ],
      "name": "BatchMetadataUpdate",
      "type": "event"
    },
    {
      "anonymous": false,
      "inputs": [
        {
          "indexed": false,
          "internalType": "uint256",
          "name": "_tokenId",
          "type": "uint256"
        }
      ],
      "name": "MetadataUpdate",
      "type": "event"
    },
    {
      "anonymous": false,
      "inputs": [
        {
          "indexed": true,
          "internalType": "address",
          "name": "to",
          "type": "address"
        },
        {
          "indexed": true,
          "internalType": "uint256",
          "name": "tokenId",
          "type": "uint256"
        },
        {
          "indexed": false,
          "internalType": "string",
          "name": "tokenURI",
          "type": "string"
        }
      ],
      "name": "NFTMinted",
      "type": "event"
    },
    {
      "anonymous": false,
      "inputs": [
        {
          "indexed": true,
          "internalType": "address",
          "name": "previousOwner",
          "type": "address"
        },
        {
          "indexed": true,
          "internalType": "address",
          "name": "newOwner",
          "type": "address"
        }
      ],
      "name": "OwnershipTransferred",
      "type": "event"
    },
    {
      "anonymous": false,
      "inputs": [
        {
          "indexed": true,
          "internalType": "address",
          "name": "from",
          "type": "address"
        },
        {
          "indexed": true,
          "internalType": "address",
          "name": "to",
          "type": "address"
        },
        {
          "indexed": true,
          "internalType": "uint256",
          "name": "tokenId",
          "type": "uint256"
        }
      ],
      "name": "Transfer",
      "type": "event"
    },
    {
      "inputs": [],
      "name": "MAX_SUPPLY",
      "outputs": [
        {
          "internalType": "uint256",
          "name": "",
          "type": "uint256"
        }
      ],
      "stateMutability": "view",
      "type": "function"
    },
    {
      "inputs": [],
      "name": "PRICE",
      "outputs": [
        {
          "internalType": "uint256",
          "name": "",
          "type": "uint256"
        }
      ],
      "stateMutability": "view",
      "type": "function"
    },
    {
      "inputs": [
        {
          "internalType": "address",
          "name": "to",
          "type": "address"
        },
        {
          "internalType": "uint256",
          "name": "tokenId",
          "type": "uint256"
        }
      ],
      "name": "approve",
      "outputs": [],
      "stateMutability": "nonpayable",
      "type": "function"
    },
    {
      "inputs": [
        {
          "internalType": "address",
          "name": "owner",
          "type": "address"
        }
      ],
      "name": "balanceOf",
      "outputs": [
        {
          "internalType": "uint256",
          "name": "",
          "type": "uint256"
        }
      ],
      "stateMutability": "view",
      "type": "function"
    },
    {
      "inputs": [
        {
          "internalType": "address",
          "name": "to",
          "type": "address"
        },
        {
          "internalType": "string[]",
          "name": "tokenURIs",
          "type": "string[]"
        }
      ],
      "name": "batchMint",
      "outputs": [],
      "stateMutability": "nonpayable",
      "type": "function"
    },
    {
      "inputs": [
        {
          "internalType": "uint256",
          "name": "tokenId",
          "type": "uint256"
        }
      ],
      "name": "getApproved",
      "outputs": [
        {
          "internalType": "address",
          "name": "",
          "type": "address"
        }
      ],
      "stateMutability": "view",
      "type": "function"
    },
    {
      "inputs": [
        {
          "internalType": "address",
          "name": "owner",
          "type": "address"
        },
        {
          "internalType": "address",
          "name": "operator",
          "type": "address"
        }
      ],
      "name": "isApprovedForAll",
      "outputs": [
        {
          "internalType": "bool",
          "name": "",
          "type": "bool"
        }
      ],
      "stateMutability": "view",
      "type": "function"
    },
    {
      "inputs": [
        {
          "internalType": "address",
          "name": "to",
          "type": "address"
        },
        {
          "internalType": "string",
          "name": "tokenURI",
          "type": "string"
        }
      ],
      "name": "mint",
      "outputs": [],
      "stateMutability": "nonpayable",
      "type": "function"
    },
    {
      "inputs": [],
      "name": "name",
      "outputs": [
        {
          "internalType": "string",
          "name": "",
          "type": "string"
        }
      ],
      "stateMutability": "view",
      "type": "function"
    },
    {
      "inputs": [],
      "name": "owner",
      "outputs": [
        {
          "internalType": "address",
          "name": "",
          "type": "address"
        }
      ],
      "stateMutability": "view",
      "type": "function"
    },
    {
      "inputs": [
        {
          "internalType": "uint256",
          "name": "tokenId",
          "type": "uint256"
        }
      ],
      "name": "ownerOf",
      "outputs": [
        {
          "internalType": "address",
          "name": "",
          "type": "address"
        }
      ],
      "stateMutability": "view",
      "type": "function"
    },
    {
      "inputs": [
        {
          "internalType": "string",
          "name": "tokenURI",
          "type": "string"
        }
      ],
      "name": "publicMint",
      "outputs": [],
      "stateMutability": "payable",
      "type": "function"
    },
    {
      "inputs": [],
      "name": "renounceOwnership",
      "outputs": [],
      "stateMutability": "nonpayable",
      "type": "function"
    },
    {
      "inputs": [
        {
          "internalType": "address",
          "name": "from",
          "type": "address"
        },
        {
          "internalType": "address",
          "name": "to",
          "type": "address"
        },
        {
          "internalType": "uint256",
          "name": "tokenId",
          "type": "uint256"
        }
      ],
      "name": "safeTransferFrom",
      "outputs": [],
      "stateMutability": "nonpayable",
      "type": "function"
    },
    {
      "inputs": [
        {
          "internalType": "address",
          "name": "from",
          "type": "address"
        },
        {
          "internalType": "address",
          "name": "to",
          "type": "address"
        },
        {
          "internalType": "uint256",
          "name": "tokenId",
          "type": "uint256"
        },
        {
          "internalType": "bytes",
          "name": "data",
          "type": "bytes"
        }
      ],
      "name": "safeTransferFrom",
      "outputs": [],
      "stateMutability": "nonpayable",
      "type": "function"
    },
    {
      "inputs": [
        {
          "internalType": "address",
          "name": "operator",
          "type": "address"
        },
        {
          "internalType": "bool",
          "name": "approved",
          "type": "bool"
        }
      ],
      "name": "setApprovalForAll",
      "outputs": [],
      "stateMutability": "nonpayable",
      "type": "function"
    },
    {
      "inputs": [
        {
          "internalType": "string",
          "name": "baseTokenURI",
          "type": "string"
        }
      ],
      "name": "setBaseURI",
      "outputs": [],
      "stateMutability": "nonpayable",
      "type": "function"
    },
    {
      "inputs": [
        {
          "internalType": "bytes4",
          "name": "interfaceId",
          "type": "bytes4"
        }
      ],
      "name": "supportsInterface",
      "outputs": [
        {
          "internalType": "bool",
          "name": "",
          "type": "bool"
        }
      ],
      "stateMutability": "view",
      "type": "function"
    },
    {
      "inputs": [],
      "name": "symbol",
      "outputs": [
        {
          "internalType": "string",
          "name": "",
          "type": "string"
        }
      ],
      "stateMutability": "view",
      "type": "function"
    },
    {
      "inputs": [
        {
          "internalType": "uint256",
          "name": "",
          "type": "uint256"
        }
      ],
      "name": "tokenExists",
      "outputs": [
        {
          "internalType": "bool",
          "name": "",
          "type": "bool"
        }
      ],
      "stateMutability": "view",
      "type": "function"
    },
    {
      "inputs": [
        {
          "internalType": "uint256",
          "name": "tokenId",
          "type": "uint256"
        }
      ],
      "name": "tokenURI",
      "outputs": [
        {
          "internalType": "string",
          "name": "",
          "type": "string"
        }
      ],
      "stateMutability": "view",
      "type": "function"
    },
    {
      "inputs": [],
      "name": "totalSupply",
      "outputs": [
        {
          "internalType": "uint256",
          "name": "",
          "type": "uint256"
        }
      ],
      "stateMutability": "view",
      "type": "function"
    },
    {
      "inputs": [
        {
          "internalType": "address",
          "name": "from",
          "type": "address"
        },
        {
          "internalType": "address",
          "name": "to",
          "type": "address"
        },
        {
          "internalType": "uint256",
          "name": "tokenId",
          "type": "uint256"
        }
      ],
      "name": "transferFrom",
      "outputs": [],
      "stateMutability": "nonpayable",
      "type": "function"
    },
    {
      "inputs": [
        {
          "internalType": "address",
          "name": "newOwner",
          "type": "address"
        }
      ],
      "name": "transferOwnership",
      "outputs": [],
      "stateMutability": "nonpayable",
      "type": "function"
    },
    {
      "inputs": [],
      "name": "withdraw",
      "outputs": [],
      "stateMutability": "nonpayable",
      "type": "function"
    }
  ],
  "bytecode": "0x60806040523480156200001157600080fd5b5060405162001e8538038062001e858339810160408190526200003491620001c8565b80848460006200004583826200030a565b5060016200005482826200030a565b5050506001600160a01b0381166200008657604051631e4fbdf760e01b81526000600482015260240160405180910390fd5b6200009181620000b1565b506009620000a083826200030a565b5050600160085550620003d6915050565b600780546001600160a01b038381166001600160a01b0319831681179093556040519116919082907f8be0079c531659141344cd1fd0a4f28419497f9722a3daafe3b4186f6b6457e090600090a35050565b634e487b7160e01b600052604160045260246000fd5b600082601f8301126200012b57600080fd5b81516001600160401b038082111562000148576200014862000103565b604051601f8301601f19908116603f0116810190828211818310171562000173576200017362000103565b816040528381526020925086838588010111156200019057600080fd5b600091505b83821015620001b4578582018301518183018401529082019062000195565b600093810190920192909252949350505050565b60008060008060808587031215620001df57600080fd5b84516001600160401b0380821115620001f757600080fd5b620002058883890162000119565b955060208701519150808211156200021c57600080fd5b6200022a8883890162000119565b945060408701519150808211156200024157600080fd5b50620002508782880162000119565b606087015190935090506001600160a01b03811681146200027057600080fd5b939692955090935050565b600181811c908216806200029057607f821691505b602082108103620002b157634e487b7160e01b600052602260045260246000fd5b50919050565b601f8211156200030557600081815260208120601f850160051c81016020861015620002e05750805b601f850160051c820191505b818110156200030157828155600101620002ec565b5050505b505050565b81516001600160401b0381111562000326576200032662000103565b6200033e816200033784546200027b565b84620002b7565b602080601f8311600181146200037657600084156200035d5750858301515b600019600386901b1c1916600185901b17855562000301565b600085815260208120601f198616915b82811015620003a75788860151825594840194600190910190840162000386565b5085821015620003c65787850151600019600388901b60f8161c191681555b5050505050600190811b01905550565b611a9f80620003e66000396000f3fe6080604052600436106101655760003560e01c806370a08231116100d1578063b3d7acf91161008a578063d0def52111610064578063d0def5211461040a578063e985e9c51461042a578063f2f18baa1461044a578063f2fde38b1461046a57600080fd5b8063b3d7acf9146103b7578063b88d4fde146103ca578063c87b56dd146103ea57600080fd5b806370a0823114610314578063715018a6146103345780638d859f3e146103495780638da5cb5b1461036457806395d89b4114610382578063a22cb4651461039757600080fd5b806323b872dd1161012357806323b872dd1461026a57806332cb6b0c1461028a5780633ccfd60b1461029f57806342842e0e146102b457806355f804b3146102d45780636352211e146102f457600080fd5b8062923f9e1461016a57806301ffc9a7146101af57806306fdde03146101cf578063081812fc146101f1578063095ea7b31461022957806318160ddd1461024b575b600080fd5b34801561017657600080fd5b5061019a6101853660046113f9565b600a6020526000908152604090205460ff1681565b60405190151581526020015b60405180910390f35b3480156101bb57600080fd5b5061019a6101ca366004611428565b61048a565b3480156101db57600080fd5b506101e461049b565b6040516101a69190611495565b3480156101fd57600080fd5b5061021161020c3660046113f9565b61052d565b6040516001600160a01b0390911681526020016101a6565b34801561023557600080fd5b506102496102443660046114c4565b610556565b005b34801561025757600080fd5b506008545b6040519081526020016101a6565b34801561027657600080fd5b506102496102853660046114ee565b610565565b34801561029657600080fd5b5061025c606481565b3480156102ab57600080fd5b506102496105f5565b3480156102c057600080fd5b506102496102cf3660046114ee565b610648565b3480156102e057600080fd5b506102496102ef3660046115e9565b610668565b34801561030057600080fd5b5061021161030f3660046113f9565b61067c565b34801561032057600080fd5b5061025c61032f36600461161e565b610687565b34801561034057600080fd5b506102496106cf565b34801561035557600080fd5b5061025c66038d7ea4c6800081565b34801561037057600080fd5b506007546001600160a01b0316610211565b34801561038e57600080fd5b506101e46106e3565b3480156103a357600080fd5b506102496103b2366004611639565b6106f2565b6102496103c53660046115e9565b6106fd565b3480156103d657600080fd5b506102496103e5366004611675565b61084b565b3480156103f657600080fd5b506101e46104053660046113f9565b610863565b34801561041657600080fd5b506102496104253660046116f1565b61086e565b34801561043657600080fd5b5061019a61044536600461173f565b61094b565b34801561045657600080fd5b50610249610465366004611772565b610979565b34801561047657600080fd5b5061024961048536600461161e565b610a2c565b600061049582610a6a565b92915050565b6060600080546104aa90611848565b80601f01602080910402602001604051908101604052809291908181526020018280546104d690611848565b80156105235780601f106104f857610100808354040283529160200191610523565b820191906000526020600020905b81548152906001019060200180831161050657829003601f168201915b5050505050905090565b600061053882610a8f565b506000828152600460205260409020546001600160a01b0316610495565b610561828233610ac8565b5050565b6001600160a01b03821661059457604051633250574960e11b8152600060048201526024015b60405180910390fd5b60006105a1838333610ad5565b9050836001600160a01b0316816001600160a01b0316146105ef576040516364283d7b60e01b81526001600160a01b038086166004830152602482018490528216604482015260640161058b565b50505050565b6105fd610bce565b476106106007546001600160a01b031690565b6001600160a01b03166108fc829081150290604051600060405180830381858888f19350505050158015610561573d6000803e3d6000fd5b6106638383836040518060200160405280600081525061084b565b505050565b610670610bce565b600961056182826118c8565b600061049582610a8f565b60006001600160a01b0382166106b3576040516322718ad960e21b81526000600482015260240161058b565b506001600160a01b031660009081526003602052604090205490565b6106d7610bce565b6106e16000610bfb565b565b6060600180546104aa90611848565b610561338383610c4d565b66038d7ea4c6800034101561074b5760405162461bcd60e51b8152602060048201526014602482015273125b9cdd59999a58da595b9d081c185e5b595b9d60621b604482015260640161058b565b6064600854106107925760405162461bcd60e51b815260206004820152601260248201527113585e081cdd5c1c1b1e481c995858da195960721b604482015260640161058b565b6008805490819060006107a48361199e565b91905055506107b33382610ce4565b6107bd8183610cfe565b6000818152600a602052604090819020805460ff1916600117905551819033907fd35bb95e09c04b219e35047ce7b7b300e3384264ef84a40456943dbc0fc17c149061080a908690611495565b60405180910390a36007546040516001600160a01b03909116903480156108fc02916000818181858888f19350505050158015610663573d6000803e3d6000fd5b610856848484610565565b6105ef3385858585610d4e565b606061049582610e79565b610876610bce565b6064600854106108bd5760405162461bcd60e51b815260206004820152601260248201527113585e081cdd5c1c1b1e481c995858da195960721b604482015260640161058b565b6008805490819060006108cf8361199e565b91905055506108de8382610ce4565b6108e88183610cfe565b6000818152600a602052604090819020805460ff191660011790555181906001600160a01b038516907fd35bb95e09c04b219e35047ce7b7b300e3384264ef84a40456943dbc0fc17c149061093e908690611495565b60405180910390a3505050565b6001600160a01b03918216600090815260056020908152604080832093909416825291909152205460ff1690565b610981610bce565b6064815160085461099291906119b7565b11156109eb5760405162461bcd60e51b815260206004820152602260248201527f4261746368206d696e7420776f756c6420657863656564206d617820737570706044820152616c7960f01b606482015260840161058b565b60005b815181101561066357610a1a83838381518110610a0d57610a0d6119ca565b602002602001015161086e565b80610a248161199e565b9150506109ee565b610a34610bce565b6001600160a01b038116610a5e57604051631e4fbdf760e01b81526000600482015260240161058b565b610a6781610bfb565b50565b60006001600160e01b03198216632483248360e11b1480610495575061049582610f7d565b6000818152600260205260408120546001600160a01b03168061049557604051637e27328960e01b81526004810184905260240161058b565b6106638383836001610fcd565b6000828152600260205260408120546001600160a01b0390811690831615610b0257610b028184866110d3565b6001600160a01b03811615610b4057610b1f600085600080610fcd565b6001600160a01b038116600090815260036020526040902080546000190190555b6001600160a01b03851615610b6f576001600160a01b0385166000908152600360205260409020805460010190555b60008481526002602052604080822080546001600160a01b0319166001600160a01b0389811691821790925591518793918516917fddf252ad1be2c89b69c2b068fc378daa952ba7f163c4a11628f55a4df523b3ef91a4949350505050565b6007546001600160a01b031633146106e15760405163118cdaa760e01b815233600482015260240161058b565b600780546001600160a01b038381166001600160a01b0319831681179093556040519116919082907f8be0079c531659141344cd1fd0a4f28419497f9722a3daafe3b4186f6b6457e090600090a35050565b6001600160a01b038216610c7f57604051630b61174360e31b81526001600160a01b038316600482015260240161058b565b6001600160a01b03838116600081815260056020908152604080832094871680845294825291829020805460ff191686151590811790915591519182527f17307eab39ab6107e8899845ad3d59bd9653f200f220920489ca2b5937696c31910161093e565b610561828260405180602001604052806000815250611137565b6000828152600660205260409020610d1682826118c8565b506040518281527ff8e1a15aba9398e019f0b49df1a4fde98ee17ae345cb5f6b5e2c27f5033e8ce79060200160405180910390a15050565b6001600160a01b0383163b15610e7257604051630a85bd0160e11b81526001600160a01b0384169063150b7a0290610d909088908890879087906004016119e0565b6020604051808303816000875af1925050508015610dcb575060408051601f3d908101601f19168201909252610dc891810190611a1d565b60015b610e34573d808015610df9576040519150601f19603f3d011682016040523d82523d6000602084013e610dfe565b606091505b508051600003610e2c57604051633250574960e11b81526001600160a01b038516600482015260240161058b565b805160208201fd5b6001600160e01b03198116630a85bd0160e11b14610e7057604051633250574960e11b81526001600160a01b038516600482015260240161058b565b505b5050505050565b6060610e8482610a8f565b5060008281526006602052604081208054610e9e90611848565b80601f0160208091040260200160405190810160405280929190818152602001828054610eca90611848565b8015610f175780601f10610eec57610100808354040283529160200191610f17565b820191906000526020600020905b815481529060010190602001808311610efa57829003601f168201915b505050505090506000610f2861114f565b90508051600003610f3a575092915050565b815115610f6c578082604051602001610f54929190611a3a565b60405160208183030381529060405292505050919050565b610f758461115e565b949350505050565b60006001600160e01b031982166380ac58cd60e01b1480610fae57506001600160e01b03198216635b5e139f60e01b145b8061049557506301ffc9a760e01b6001600160e01b0319831614610495565b8080610fe157506001600160a01b03821615155b156110a3576000610ff184610a8f565b90506001600160a01b0383161580159061101d5750826001600160a01b0316816001600160a01b031614155b8015611030575061102e818461094b565b155b156110595760405163a9fbf51f60e01b81526001600160a01b038416600482015260240161058b565b81156110a15783856001600160a01b0316826001600160a01b03167f8c5be1e5ebec7d5bd14f71427d1e84f3dd0314c0f7b2291e5b200ac8c7c3b92560405160405180910390a45b505b5050600090815260046020526040902080546001600160a01b0319166001600160a01b0392909216919091179055565b6110de8383836111c6565b610663576001600160a01b03831661110c57604051637e27328960e01b81526004810182905260240161058b565b60405163177e802f60e01b81526001600160a01b03831660048201526024810182905260440161058b565b6111418383611229565b610663336000858585610d4e565b6060600980546104aa90611848565b606061116982610a8f565b50600061117461114f565b9050600081511161119457604051806020016040528060008152506111bf565b8061119e8461128e565b6040516020016111af929190611a3a565b6040516020818303038152906040525b9392505050565b60006001600160a01b03831615801590610f755750826001600160a01b0316846001600160a01b031614806112005750611200848461094b565b80610f755750506000908152600460205260409020546001600160a01b03908116911614919050565b6001600160a01b03821661125357604051633250574960e11b81526000600482015260240161058b565b600061126183836000610ad5565b90506001600160a01b03811615610663576040516339e3563760e11b81526000600482015260240161058b565b6060600061129b83611321565b600101905060008167ffffffffffffffff8111156112bb576112bb61152a565b6040519080825280601f01601f1916602001820160405280156112e5576020820181803683370190505b5090508181016020015b600019016f181899199a1a9b1b9c1cb0b131b232b360811b600a86061a8153600a85049450846112ef57509392505050565b60008072184f03e93ff9f4daa797ed6e38ed64bf6a1f0160401b83106113605772184f03e93ff9f4daa797ed6e38ed64bf6a1f0160401b830492506040015b6d04ee2d6d415b85acef8100000000831061138c576d04ee2d6d415b85acef8100000000830492506020015b662386f26fc1000083106113aa57662386f26fc10000830492506010015b6305f5e10083106113c2576305f5e100830492506008015b61271083106113d657612710830492506004015b606483106113e8576064830492506002015b600a83106104955760010192915050565b60006020828403121561140b57600080fd5b5035919050565b6001600160e01b031981168114610a6757600080fd5b60006020828403121561143a57600080fd5b81356111bf81611412565b60005b83811015611460578181015183820152602001611448565b50506000910152565b60008151808452611481816020860160208601611445565b601f01601f19169290920160200192915050565b6020815260006111bf6020830184611469565b80356001600160a01b03811681146114bf57600080fd5b919050565b600080604083850312156114d757600080fd5b6114e0836114a8565b946020939093013593505050565b60008060006060848603121561150357600080fd5b61150c846114a8565b925061151a602085016114a8565b9150604084013590509250925092565b634e487b7160e01b600052604160045260246000fd5b604051601f8201601f1916810167ffffffffffffffff811182821017156115695761156961152a565b604052919050565b600067ffffffffffffffff83111561158b5761158b61152a565b61159e601f8401601f1916602001611540565b90508281528383830111156115b257600080fd5b828260208301376000602084830101529392505050565b600082601f8301126115da57600080fd5b6111bf83833560208501611571565b6000602082840312156115fb57600080fd5b813567ffffffffffffffff81111561161257600080fd5b610f75848285016115c9565b60006020828403121561163057600080fd5b6111bf826114a8565b6000806040838503121561164c57600080fd5b611655836114a8565b91506020830135801515811461166a57600080fd5b809150509250929050565b6000806000806080858703121561168b57600080fd5b611694856114a8565b93506116a2602086016114a8565b925060408501359150606085013567ffffffffffffffff8111156116c557600080fd5b8501601f810187136116d657600080fd5b6116e587823560208401611571565b91505092959194509250565b6000806040838503121561170457600080fd5b61170d836114a8565b9150602083013567ffffffffffffffff81111561172957600080fd5b611735858286016115c9565b9150509250929050565b6000806040838503121561175257600080fd5b61175b836114a8565b9150611769602084016114a8565b90509250929050565b6000806040838503121561178557600080fd5b61178e836114a8565b915060208084013567ffffffffffffffff808211156117ac57600080fd5b818601915086601f8301126117c057600080fd5b8135818111156117d2576117d261152a565b8060051b6117e1858201611540565b918252838101850191858101908a8411156117fb57600080fd5b86860192505b83831015611837578235858111156118195760008081fd5b6118278c89838a01016115c9565b8352509186019190860190611801565b809750505050505050509250929050565b600181811c9082168061185c57607f821691505b60208210810361187c57634e487b7160e01b600052602260045260246000fd5b50919050565b601f82111561066357600081815260208120601f850160051c810160208610156118a95750805b601f850160051c820191505b81811015610e70578281556001016118b5565b815167ffffffffffffffff8111156118e2576118e261152a565b6118f6816118f08454611848565b84611882565b602080601f83116001811461192b57600084156119135750858301515b600019600386901b1c1916600185901b178555610e70565b600085815260208120601f198616915b8281101561195a5788860151825594840194600190910190840161193b565b50858210156119785787850151600019600388901b60f8161c191681555b5050505050600190811b01905550565b634e487b7160e01b600052601160045260246000fd5b6000600182016119b0576119b0611988565b5060010190565b8082018082111561049557610495611988565b634e487b7160e01b600052603260045260246000fd5b6001600160a01b0385811682528416602082015260408101839052608060608201819052600090611a1390830184611469565b9695505050505050565b600060208284031215611a2f57600080fd5b81516111bf81611412565b60008351611a4c818460208801611445565b835190830190611a60818360208801611445565b0194935050505056fea26469706673582212201d8eede0e10d041813d828f995417a744c0ea8c2687b45dd1e1e61eac40b724764736f6c63430008140033",
  "linkReferences": {},
  "deployedLinkReferences": {}
}